:020000040800F2
:1000000000800120DD1300085D1200086512000861
:100010006D120008751200087D1200080000000033
:10002000000000000000000000000000C1530008B4
:100030008512000800000000B1560008195700089A
:100040002D1400082D1400082D1400082D1400088C
:100050002D1400082D1400082D1400082D1400087C
:100060002D1400082D1400082D1400082D1400086C
:100070002D1400082D1400082D1400082D1400085C
:100080002D1400082D1400082D1400080000000095
:100090000000000000000000000000002D14000817
:1000A0002D1400082D1400082D1400082D1400082C
:1000B0002D1400082D140008951200082D140008B6
:1000C0002D1400082D1400082D1400082D1400080C
:1000D0002D1400082D140008E15D00080000000048
:1000E0002D1400082D1400082D1400080000000035
:1000F0000000000000000000000000002D140008B7
:10010000000000002D1400082D1400082D14000814
:1001100000000000000000000000000000000000DF
:100120002D1400082D1400082D1400082D140008AB
:100130002D14000800000000000000000000000076
:100140000000000000000000000000002D14000866
:100150002D1400082D1400082D1400082D1400087B
:100160002D1400082D1400080000000000000000FD
:10017000000000000000000000000000000000007F
:10018000000000002D140008000000000000000026
:040190002D14000822
:1001A00010B5054C237833B9044B13B10448AFF3B1
:1001B00000800123237010BD7000002000000000AB
:1001C000787F000808B5034B1BB103490348AFF320
:1001D000008008BD0000000074000020787F000847
:1001E000F0B400EB4003DFF8880000EBC30000F13F
:1001F00018063069F7687568874232D3B368DC1B2C
:10020000631E934214D37D19D01900BF11F8013B2E
:1002100005F8013B013A05D011F8013B05F8013B17
:10022000013AF3D1BFF35F8FF0600120F0BC70475B
:10023000C018904219D37819121B11F8013B00F82D
:10024000013B013CF9D1141C05D011F8013B05F824
:10025000013B013AF9D1BFF35F8FF4600120F0BC9C
:100260007047C01B01389042CDD20020F0BC7047CF
:10027000F42F012053B94AB9002908BF00281CBF38
:100280004FF0FF314FF0FF3000F06AB9ADF1080CCC
:100290006DE904CE00F006F8DDF804E0DDE90223A4
:1002A00004B070472DE9F047089D0C46002B4ED155
:1002B00094468C458646B2FA82F262D94AB1C2F1BE
:1002C0002003914020FA03F30CFA02FC194300FAD0
:1002D00002FE4FEA1C471FFA8CF6B1FBF7F44FEA17
:1002E0001E4307FB141143EA014304FB06F1994244
:1002F0000AD91CEB030304F1FF3080F0128199420C
:1003000040F20F81023C6344591A1FFA8EF3B1FB8D
:10031000F7F007FB101143EA014300FB06F69E428B
:100320000AD91CEB030300F1FF3180F0FC809E42F0
:1003300040F2F980634402389B1B40EA04400021EC
:100340001DB1D3400022C5E90032BDE8F0878B42E1
:1003500005D90DB1C5E9000100210846F5E7B3FA5A
:1003600083F1002946D1A34202D39042C0F0F0802D
:10037000861A64EB03030120002DE6D0C5E9006373
:10038000E3E7002A40F09080A1EB0C044FEA1C4800
:100390001FFA8CF70121B4FBF8F64FEA1E4308FB65
:1003A000164443EA044307FB06F0984208D91CEBC5
:1003B000030306F1FF3402D2984200F2CD802646B4
:1003C0001C1A1FFA8EF3B4FBF8F008FB104443EA42
:1003D000044300FB07F79F4208D91CEB030300F11D
:1003E000FF3402D29F4200F2B0802046DB1B40EA7D
:1003F0000640A5E7C1F120068B4022FA06F71F430D
:1004000020FA06FC04FA01F343EA0C03F44000FA74
:1004100001F8380C4FEA1349B4FBF0FE1FFA87FCD1
:1004200000FB1E4449EA04440EFB0CF9A14502FA04
:1004300001F20AD93C190EF1FF3A80F08480A145FF
:1004400040F28180AEF1020E3C44A4EB09041FFA95
:1004500083F9B4FBF0F300FB134449EA044403FBC3
:100460000CFCA44507D93C1903F1FF3067D2A44521
:1004700065D9023B3C4443EA0E40A0FB0293A4EB47
:100480000C049C42CE469C4651D34ED055B1B8EB9D
:100490000E0364EB0C0404FA06F6CB401E43CC407A
:1004A000C5E90064002150E7C2F1200320FA03F1FE
:1004B0000CFA02FC24FA03F394400C434FEA1C4864
:1004C00000FA02FE1FFA8CF7B3FBF8F008FB1031BC
:1004D000230C43EA014300FB07F1994208D91CEBC6
:1004E000030300F1FF362CD299422AD90238634423
:1004F0005B1AA4B2B3FBF8F108FB113344EA0344DE
:1005000001FB07F3A34208D91CEB040401F1FF36F9
:1005100013D2A34211D902396444E41A41EA0041DA
:1005200039E70446F0E6084606E7C845AED2B9EB1F
:10053000020E63EB070C0138A8E73146EDE70346EE
:1005400099E73046D4E7D6467FE7634402384DE763
:100550000646234608460FE7023E634430E700BFE5
:10056000704700BF80B582B000AF0346FB80FB88B8
:10057000184600F09FFF00BF0837BD4680BD80B51C
:1005800086B002AF78600B46FB701346BB70FB78F9
:1005900023F00F03FB73FB781B01BB737B68DB7AD3
:1005A000002B07D0FB7B43F00803FB73BB7B43F0BE
:1005B0000803BB73BB78012B08D1FB7B43F001031D
:1005C000FB73BB7B43F00103BB730AE0BB78002BDA
:1005D00007D1FB7B23F00103FB73BB7B23F00103FB
:1005E000BB73FB7B43F00403DBB23B720120FFF7DC
:1005F000B9FFFB7B7B72BB7B43F00403DBB2BB72B6
:100600000120FFF7AFFFBB7BFB727B6818687B683C
:100610001B79194607F108024FF47A7300930423FB
:1006200001F048FB00BF1037BD4680BD80B584B0E7
:1006300000AFF860B96011461A460B46FB711346CD
:10064000BB71FB68BA681A60FB68FA791A71FB68BB
:10065000BA795A71FB683A7E9A71FB6828229A72BD
:10066000FB680622DA71FB680C221A72FB681422FE
:100670005A72FB680822DA723220FFF773FF0022F9
:100680003321F868FFF77BFF00223321F868FFF77A
:1006900076FF0520FFF766FF00223221F868FFF79A
:1006A0006EFF0520FFF75EFF00222021F868FFF7AC
:1006B00066FF0520FFF756FFFB68DB79002219462D
:1006C000F868FFF75CFFFB681B7A00221946F868A0
:1006D000FFF755FFFB685B7A00221946F868FFF7C1
:1006E0004EFFFB689B7A00221946F868FFF747FF28
:1006F00000220121F868FFF742FF00220221F8687A
:10070000FFF73DFF00BF1037BD4680BD80B584B008
:1007100000AF78600B46FB701346BB700023FB7381
:100720007B685B79FA789A4203D37B685B79013BFB
:10073000FB707B689B79BA789A4203D37B689B797C
:10074000013BBB70BB78002B02D1FB78FB7313E03D
:10075000BB78012B03D1FB784033FB730CE0BB78F3
:10076000022B03D1FB781433FB7305E0BB78032B1A
:1007700002D1FB785433FB73FB7B63F07F03DBB266
:10078000002219467868FFF7FAFE00BF1037BD4611
:1007900080BD80B582B000AF78600B46FB70FB78FF
:1007A000012219467868FFF7EAFE00BF0837BD4608
:1007B00080BD80B582B000AF7860396007E03B68EB
:1007C0005A1C3A601B7819467868FFF7E2FF3B68CD
:1007D0001B78002BF3D100BF00BF0837BD4680BD9A
:1007E00080B582B000AF0346FB80294B1B78022BFB
:1007F00026D0022B47DC002B02D0012B0CD042E08C
:10080000FB88002B3AD0224B01221A7000F046FEE2
:100810000346204A136031E000F040FE02461D4BC3
:100820001B68D31A312B2BD9FB88002B04D0184B13
:1008300002221A70FB8827E0154B00221A701FE075
:10084000FB88002B08D1124B01221A7000F026FE03
:100850000346104A136015E000F020FE02460D4BDF
:100860001B68D31AB3F5967F0CD3094B01221A707B
:1008700000F014FE0346074A136003E000BF02E0E5
:1008800000BF00E000BF002318460837BD4680BD0A
:100890008C0000209000002080B582B000AF0023C3
:1008A000FB8000224FF400418D4801F0A5F80122A1
:1008B0004FF480418A4801F09FF801224FF4005123
:1008C000874801F099F801224FF48051844801F0E3
:1008D00093F84021834801F077F80346002B03D1B9
:1008E000FB8843F00103FB8080217E4801F06CF817
:1008F0000346002B03D1FB8843F00203FB804FF437
:100900008071784801F060F80346002B03D1FB8822
:1009100043F00403FB804FF40071724801F054F877
:100920000346002B03D1FB8843F00803FB80012220
:100930004FF400416A4801F05FF800224FF4804113
:10094000674801F059F801224FF40051644801F062
:1009500053F801224FF48051614801F04DF84021D5
:10096000604801F031F80346002B03D1FB8843F0C7
:100970001003FB8080215B4801F026F80346002B22
:1009800003D1FB8843F02003FB804FF4807155486E
:1009900001F01AF80346002B03D1FB8843F0400313
:1009A000FB804FF400714F4801F00EF80346002B16
:1009B00003D1FB8843F08003FB8001224FF4004108
:1009C000474801F019F801224FF48041444801F0F2
:1009D00013F800224FF40051414801F00DF80122B4
:1009E0004FF480513E4801F007F840213D4800F0A7
:1009F000EBFF0346002B03D1FB8843F48073FB809D
:100A00008021384800F0E0FF0346002B03D1FB882B
:100A100043F40073FB804FF48071324800F0D4FF40
:100A20000346002B03D1FB8843F48063FB804FF423
:100A300000712C4800F0C8FF0346002B03D1FB884F
:100A400043F40063FB8001224FF40041244800F08E
:100A5000D3FF01224FF48041214800F0CDFF012255
:100A60004FF400511E4800F0C7FF00224FF48051A0
:100A70001B4800F0C1FF40211A4800F0A5FF0346C3
:100A8000002B03D1FB8843F48053FB808021154861
:100A900000F09AFF0346002B03D1FB8843F4005378
:100AA000FB804FF480710F4800F08EFF0346002B4F
:100AB00003D1FB8843F48043FB804FF40071094865
:100AC00000F082FF0346002B05D1FB886FEA434309
:100AD0006FEA5343FB80FB8818460837BD4680BD4C
:100AE000000402400008024080B588B002AF00F068
:100AF0009FFC00F0C1F800F0A9F900F057F900F0F0
:100B000027F90423009314234E224A494A48FFF749
:100B10008DFD002200214848FFF7F8FD474946486F
:100B2000FFF747FE464B0193022300930023FA226E
:100B30004449454803F0F5F878617B69002B0BD1F7
:100B40004FF0500383F31188BFF36F8FBFF34F8FC4
:100B50003B6100BF00BFFDE73C4B019302230093C4
:100B60000023FA223A493B4803F0DBF878617B69BD
:100B7000002B0BD14FF0500383F31188BFF36F8F1D
:100B8000BFF34F8FFB6000BF00BFFDE7324B019307
:100B9000022300930023FA223049314803F0C1F8C0
:100BA00078617B69002B0BD14FF0500383F31188E0
:100BB000BFF36F8FBFF34F8FBB6000BF00BFFDE778
:100BC000284B0193022300930023FA222649274849
:100BD00003F0A7F878617B69002B0BD14FF050032D
:100BE00083F31188BFF36F8FBFF34F8F7B6000BF1C
:100BF00000BFFDE7002204210A2002F0D7FD0346D2
:100C00001B4A13601A4B1B68002B0BD14FF050038B
:100C100083F31188BFF36F8FBFF34F8F3B6000BF2B
:100C200000BFFDE7134806F007FE03F06BFA00BFB4
:100C3000FDE700BF9400002030010020907F0008F5
:100C40003C010020987F0008910F0008440100201B
:100C5000A47F0008C10F000848010020B87F0008E9
:100C60000510000840010020C47F0008B50F0008EF
:100C70004C010020D07F000880B594B000AF07F190
:100C8000200330220021184606F0C6FE07F10C03AF
:100C900000221A605A609A60DA601A610023BB6011
:100CA000294B1B6C284A43F080531364264B1B6C62
:100CB00003F08053BB60BB6800237B60234B1B6841
:100CC00023F44043214A43F4004313601F4B1B6845
:100CD00003F440437B607B6802233B620123FB6299
:100CE00010233B630223BB630023FB6310233B649D
:100CF0004FF4A8737B640423BB640723FB6407F1F0
:100D00002003184601F030FB0346002B01D000F011
:100D100091F90F23FB6002233B6100237B614FF4B9
:100D20008053BB610023FB6107F10C0302211846CD
:100D300001F092FD0346002B01D000F07BF900BFCB
:100D40005037BD4680BD00BF0038024000700040F3
:100D500080B500AF124B134A1A60114B124A5A6009
:100D60000F4B00229A600E4B0022DA600C4B4FF4BE
:100D700080421A610A4B00225A61094B00229A6193
:100D8000074B0022DA61064B00221A62044800F089
:100D90004DFE0346002B01D000F04CF900BF80BD92
:100DA0009400002000540040A086010080B586B069
:100DB00000AF07F1080300221A605A609A60DA60F7
:100DC0003B4600221A605A601E4B1F4A1A601D4B98
:100DD00053225A601B4B00229A601A4B4FF6FE7248
:100DE000DA60184B00221A61164B00225A61154B2B
:100DF00000229A61134801F06DFF0346002B01D0D9
:100E000000F018F94FF48053BB6007F1080319464E
:100E10000C4802F001F90346002B01D000F00AF95A
:100E200000233B6000237B603B461946054802F0E7
:100E300009FB0346002B01D000F0FCF800BF183777
:100E4000BD4680BDE80000200000014080B58AB0AA
:100E500000AF07F1140300221A605A609A60DA604A
:100E60001A6100233B61464B1B6B454A43F0040368
:100E70001363434B1B6B03F004033B613B6900238B
:100E8000FB603F4B1B6B3E4A43F0800313633C4BBC
:100E90001B6B03F08003FB60FB680023BB60384BD7
:100EA0001B6B374A43F001031363354B1B6B03F095
:100EB0000103BB60BB6800237B60314B1B6B304A76
:100EC00043F0020313632E4B1B6B03F002037B60A2
:100ED0007B68002220212B4800F08EFD01224FF478
:100EE0007041294800F088FD4FF400537B614FF4B6
:100EF0000413BB610023FB6107F114031946234867
:100F000000F0DEFB0C237B610223BB610023FB614D
:100F100000233B6207237B6207F11403194619483B
:100F200000F0CEFB20237B610123BB610023FB612A
:100F300000233B6207F114031946124800F0C0FB7E
:100F40004FF470437B610123BB610023FB610023ED
:100F50003B6207F1140319460B4800F0B1FB4FF454
:100F600070737B610023BB610123FB6107F11403F4
:100F70001946064800F0A4FB00BF2837BD4680BDD7
:100F80000038024000000240000402400008024015
:100F900080B582B000AF786004490548FFF709FCCE
:100FA0004FF47A7003F02CF800BFF5E7EC7F0008EF
:100FB0003001002080B483B000AF786000BFFDE74F
:100FC00080B584B000AF7860FFF766FC0346184632
:100FD000FFF706FC0346FB81074B1B78002B06D16D
:100FE000FB890C2B03D105490548FFF7E2FB1420D0
:100FF00003F006F8E8E700BF50010020F47F000886
:101000003001002080B483B000AF786000BFFDE7FE
:1010100080B582B000AF78607B681B68044A934259
:1010200001D100F027FA00BF0837BD4680BD00BFE0
:101030000008004080B400AF72B600BF00BFFDE7FB
:1010400080B483B000AF00237B60104B5B6C0F4A11
:1010500043F4804353640D4B5B6C03F480437B602B
:101060007B6800233B60094B1B6C084A43F08053AC
:101070001364064B1B6C03F080533B603B6800BF5E
:101080000C37BD465DF8047B704700BF0038024056
:1010900080B58AB000AF786007F1140300221A60AF
:1010A0005A609A60DA601A617B681B68194A934239
:1010B0002BD100233B61184B1B6B174A43F00203F3
:1010C0001363154B1B6B03F002033B613B69C023A9
:1010D0007B611223BB610023FB6103233B6204237A
:1010E0007B6207F1140319460C4800F0E9FA00236B
:1010F000FB60094B1B6C084A43F400131364064B56
:101100001B6C03F40013FB60FB6800BF2837BD466F
:1011100080BD00BF0054004000380240000402407F
:1011200080B485B000AF78607B681B680B4A93423F
:101130000DD10023FB600A4B5B6C094A43F00103AD
:101140005364074B5B6C03F00103FB60FB6800BF5B
:101150001437BD465DF8047B704700BF00000140B6
:101160000038024080B58EB000AF78600023FB628B
:101170000023BB620023FB60334B1B6C324A43F0FD
:1011800004031364304B1B6C03F00403FB60FB6827
:1011900007F1100207F114031146184601F068FD2B
:1011A0003B6AFB62FB6A002B03D101F04DFD7863C3
:1011B00004E001F049FD03465B007B637B6B234A3F
:1011C000A2FB03239B0C013BBB62214B214A1A600B
:1011D0001F4B40F2E732DA601D4ABB6A53601C4B7A
:1011E00000221A611A4B00229A60194B00229A6160
:1011F000174801F06FFD034687F8333097F8333016
:10120000002B1BD1124801F0B5FD034687F833309F
:1012100097F83330002B11D11E2000F043FA7B6881
:101220000F2B08D8002279681E2000F01FFA0A4A06
:101230007B68136002E0012387F8333097F833307E
:1012400018463837BD4680BD0038024083DE1B4358
:1012500054010020000800400400002080B400AFCA
:1012600000BFFDE780B400AF00BFFDE780B400AF72
:1012700000BFFDE780B400AF00BFFDE780B400AF62
:1012800000BFFDE780B400AF00BFBD465DF8047B42
:101290007047000080B500AF024801F0CDFD00BFEF
:1012A00080BD00BF5401002080B586B000AFF8605B
:1012B000B9607A6000237B610AE0AFF300800146E9
:1012C000BB685A1CBA60CAB21A707B6901337B6171
:1012D0007A697B689A42F0DB7B6818461837BD460E
:1012E00080BD80B483B000AF78604FF0FF33184604
:1012F0000C37BD465DF8047B704780B483B000AF07
:10130000786039603B684FF400525A6000231846F9
:101310000C37BD465DF8047B704780B483B000AFE6
:101320007860012318460C37BD465DF8047B704792
:1013300080B485B000AFF860B9607A6000231846C9
:101340001437BD465DF8047B7047000080B586B059
:1013500000AF7860144A154BD31A7B617B693B61FF
:10136000134B1B68002B02D1114B124A1A60104B11
:101370001A687B6813443A699A4207D206F088FBE0
:1013800003460C221A604FF0FF3309E0084B1B683C
:10139000FB60074B1A687B681344054A1360FB68BF
:1013A00018461837BD4680BD0080012000040000AB
:1013B0009C0100201037012080B400AF064BD3F809
:1013C0008830054A43F47003C2F8883000BFBD4638
:1013D0005DF8047B704700BF00ED00E0DFF834D01B
:1013E000FFF7EAFF0C480D490D4A002302E0D458EC
:1013F000C4500433C4188C42F9D30A4A0A4C00235F
:1014000001E013600432A242FBD306F047FBFFF772
:101410006BFB70470080012000000020700000205E
:10142000C8800008700000200C370120FEE7000093
:1014300080B500AF0E4B1B680D4A43F40073136078
:101440000B4B1B680A4A43F480631360084B1B680C
:10145000074A43F480731360032000F0FCF8002077
:10146000FFF780FEFFF7ECFD0023184680BD00BFAC
:10147000003C024080B400AF064B1B781A46064B76
:101480001B681344044A136000BFBD465DF8047B2B
:10149000704700BF08000020A001002080B400AF0A
:1014A000034B1B681846BD465DF8047B704700BFC0
:1014B000A001002080B584B000AF7860FFF7EEFF98
:1014C000B8607B68FB60FB68B3F1FF3F05D00A4B57
:1014D0001B781A46FB681344FB6000BFFFF7DEFF72
:1014E0000246BB68D31AFA689A42F7D800BF00BF19
:1014F0001037BD4680BD00BF0800002080B485B015
:1015000000AF78607B6803F00703FB600C4BDB687F
:10151000BB60BA684FF6FF031340BB60FB681A025A
:10152000BB68134343F0BF6343F40033BB60044A1A
:10153000BB68D36000BF1437BD465DF8047B7047BD
:1015400000ED00E080B400AF044BDB681B0A03F041
:1015500007031846BD465DF8047B704700ED00E0C8
:1015600080B483B000AF0346FB7197F90730002BBE
:101570000BDBFB7903F01F02074997F907305B0982
:10158000012000FA02F241F8232000BF0C37BD46CB
:101590005DF8047B704700BF00E100E080B483B0D9
:1015A00000AF03463960FB7197F90730002B0ADB67
:1015B0003B68DAB20C4997F907301201D2B20B44FA
:1015C00083F800230AE03B68DAB20849FB7903F0AC
:1015D0000F03043B1201D2B20B441A7600BF0C3742
:1015E000BD465DF8047B704700E100E000ED00E0DF
:1015F00080B489B000AFF860B9607A60FB6803F02E
:101600000703FB61FB69C3F10703042B28BF042315
:10161000BB61FB690433062B02D9FB69033B00E085
:1016200000237B614FF0FF32BB6902FA03F3DA4318
:10163000BB681A407B699A404FF0FF317B6901FA21
:1016400003F3D9437B680B40134318462437BD4648
:101650005DF8047B704780B582B000AF7860786831
:10166000FFF74CFF00BF0837BD4680BD80B586B090
:1016700000AF0346B9607A60FB7300237B61FFF71C
:1016800061FF78617A68B9687869FFF7B1FF02464F
:1016900097F90F3011461846FFF780FF00BF183743
:1016A000BD4680BD80B582B000AF0346FB7197F99F
:1016B00007301846FFF754FF00BF0837BD4680BD0E
:1016C00080B489B000AF7860396000237B6100236B
:1016D0003B610023BB610023FB6159E10122FB69EF
:1016E00002FA03F37B613B681B687A6913403B6134
:1016F0003A697B699A4240F048813B685B6803F035
:101700000303012B05D03B685B6803F00303022B46
:1017100030D17B689B68BB61FB695B00032202FAE6
:1017200003F3DB43BA691340BB613B68DA68FB69CA
:101730005B0002FA03F3BA691343BB617B68BA69C1
:101740009A607B685B68BB610122FB6902FA03F364
:10175000DB43BA691340BB613B685B681B0903F05C
:101760000102FB6902FA03F3BA691343BB617B68A8
:10177000BA695A603B685B6803F00303032B17D018
:101780007B68DB68BB61FB695B00032202FA03F341
:10179000DB43BA691340BB613B689A68FB695B0035
:1017A00002FA03F3BA691343BB617B68BA69DA6072
:1017B0003B685B6803F00303022B23D1FB69DA0863
:1017C0007B68083253F82230BB61FB6903F00703E2
:1017D0009B000F2202FA03F3DB43BA691340BB619B
:1017E0003B681A69FB6903F007039B0002FA03F3E5
:1017F000BA691343BB61FB69DA087B680832B969CF
:1018000043F822107B681B68BB61FB695B00032205
:1018100002FA03F3DB43BA691340BB613B685B68C0
:1018200003F00302FB695B0002FA03F3BA69134396
:10183000BB617B68BA691A603B685B6803F440333C
:10184000002B00F0A2800023FB60574B5B6C564AD4
:1018500043F480435364544B5B6C03F48043FB605C
:10186000FB68524AFB699B08023352F82330BB6184
:10187000FB6903F003039B000F2202FA03F3DB432F
:10188000BA691340BB617B68494A934219D07B68AF
:10189000484A934213D07B68474A93420DD07B68F5
:1018A000464A934207D07B68454A934201D10423BC
:1018B00008E0072306E0032304E0022302E00123FB
:1018C00000E00023FA6902F0030292009340BA6933
:1018D0001343BB613549FB699B080233BA6941F880
:1018E0002320384B9B68BB613B69DB43BA691340DB
:1018F000BB613B685B6803F48013002B03D0BA69BB
:101900003B691343BB612F4ABB6993602D4BDB6876
:10191000BB613B69DB43BA691340BB613B685B68F1
:1019200003F40013002B03D0BA693B691343BB6176
:10193000244ABB69D360234B5B68BB613B69DB43D3
:10194000BA691340BB613B685B6803F40033002B4A
:1019500003D0BA693B691343BB611A4ABB69536040
:10196000184B1B68BB613B69DB43BA691340BB6121
:101970003B685B6803F48033002B03D0BA693B6992
:101980001343BB610F4ABB691360FB690133FB6101
:10199000FB690F2B7FF6A2AE00BF00BF2437BD4608
:1019A0005DF8047B704700BF0038024000380140FA
:1019B000000002400004024000080240000C024007
:1019C00000100240003C014080B485B000AF786058
:1019D0000B467B807B681A697B881340002B02D002
:1019E0000123FB7301E00023FB73FB7B18461437D4
:1019F000BD465DF8047B704780B483B000AF78606B
:101A00000B467B8013467B707B78002B03D07A8853
:101A10007B689A6103E07B881A047B689A6100BF47
:101A20000C37BD465DF8047B7047000080B584B07C
:101A300000AF78607B68002B01D101232BE17B682C
:101A400093F83D30DBB2002B06D17B68002283F88F
:101A50003C207868FFF71CFB7B68242283F83D203C
:101A60007B681B681A687B681B6822F001021A6099
:101A70007B681B681A687B681B6842F400421A6026
:101A80007B681B681A687B681B6822F400421A6036
:101A900001F0DAF8F8607B685B68814A934207D806
:101AA000FB68804A934294BF01230023DBB206E027
:101AB000FB687D4A934294BF01230023DBB2002BD5
:101AC00001D00123E7E0FB68784AA2FB03239B0CCB
:101AD000BB607B681B685B6823F03F017B681B6809
:101AE000BA680A435A607B681B681B6A23F03F018F
:101AF0007B685B686A4A934202D8BB68013309E09D
:101B0000BB684FF4967202FB03F3694AA2FB0323FE
:101B10009B0901337A6812680B4313627B681B6868
:101B2000DB6923F44F4222F0FF027B685B685C496B
:101B30008B4219D8FB68591E7B685B685B00B1FB60
:101B4000F3F3591C40F6FC730B40002B0AD0FB68E2
:101B5000591E7B685B685B00B1FBF3F30133C3F391
:101B60000B0351E004234FE07B689B68002B11D1ED
:101B7000FB68581E7B6859680B465B000B44B0FB42
:101B8000F3F30133C3F30B03002B0CBF012300233A
:101B9000DBB212E0FB68581E7B6859680B469B005D
:101BA0000B4499000B44B0FBF3F30133C3F30B0375
:101BB000002B0CBF01230023DBB2002B01D001233B
:101BC00022E07B689B68002B0ED1FB68581E7B6867
:101BD00059680B465B000B44B0FBF3F30133C3F3CE
:101BE0000B0343F400430FE0FB68581E7B68596801
:101BF0000B469B000B4499000B44B0FBF3F30133FD
:101C0000C3F30B0343F44043796809681343CB6182
:101C10007B681B681B6823F0C0017B68DA697B68FE
:101C20001B6A1A437B681B680A431A607B681B683F
:101C30009B6823F4034323F0FF037A6811697A68F1
:101C4000D26811437A6812680B4393607B681B6803
:101C5000DB6823F0FF017B685A697B689B691A4344
:101C60007B681B680A43DA607B681B681A687B68BC
:101C70001B6842F001021A607B6800221A647B68CC
:101C8000202283F83D207B6800221A637B680022B3
:101C900083F83E20002318461037BD4680BD00BFA4
:101CA000A08601007F841E00FF083D0083DE1B43E9
:101CB000D34D621080B588B002AFF8607A601A46E2
:101CC0000B467B8113463B81FFF7E8FB7861FB689D
:101CD00093F83D30DBB2202B40F0E0807B6900932D
:101CE000192301227049F86800F064F90346002BBB
:101CF00001D00223D3E0FB6893F83C30012B01D1E3
:101D00000223CCE0FB68012283F83C20FB681B68BF
:101D10001B6803F00103012B07D0FB681B681A68DE
:101D2000FB681B6842F001021A60FB681B681A68B6
:101D3000FB681B6822F400621A60FB68212283F8AA
:101D40003D20FB68102283F83E20FB6800221A64C5
:101D5000FB687A685A62FB683A895A85FB685B8D32
:101D60009AB2FB681A85FB68504ADA6279897B6906
:101D70003A6AF86800F09CF80346002B01D0012372
:101D80008DE000233B61FB681B685B693B61FB687E
:101D90001B689B693B613B6966E07A69396AF86850
:101DA00000F022FA0346002B0DD0FB681B6C042BBD
:101DB00007D1FB681B681A68FB681B6842F4007255
:101DC0001A6001236BE0FB685B6A1A78FB681B688A
:101DD0001A61FB685B6A5A1CFB685A62FB685B8D80
:101DE0009BB2013B9AB2FB685A85FB681B8D013B95
:101DF0009AB2FB681A85FB681B685B6903F00403F1
:101E0000042B1BD1FB681B8D002B17D0FB685B6A72
:101E10001A78FB681B681A61FB685B6A5A1CFB68CE
:101E20005A62FB685B8D9BB2013B9AB2FB685A8594
:101E3000FB681B8D013B9AB2FB681A857A69396A87
:101E4000F86800F019FA0346002B0DD0FB681B6CF4
:101E5000042B07D1FB681B681A68FB681B6842F4F7
:101E600000721A6001231AE0FB681B8D002B94D1CD
:101E7000FB681B681A68FB681B6842F400721A60F2
:101E8000FB68202283F83D20FB68002283F83E2077
:101E9000FB68002283F83C20002300E00223184660
:101EA0001837BD4680BD00BF020010000000FFFFD4
:101EB00080B588B002AFF8607A603B600B467B81EA
:101EC000FB68DB6A7B617B69082B06D07B69012B91
:101ED00003D07B6913F5803F08D1FB681B681A6843
:101EE000FB681B6842F480721A600BE0FB681B6B96
:101EF000122B07D1FB681B681A68FB681B6842F449
:101F000080721A603B6800937B6800224FF00111D9
:101F1000F86800F04FF80346002B0DD0FB681B68F3
:101F20001B6803F48073B3F5807F03D1FB684FF423
:101F300000721A64032335E0FB681B69B3F5804F18
:101F400008D17B89DBB21A46FB681B6802F0FE02EF
:101F50001A611BE07B89DB11DBB203F00603DBB205
:101F600063F00F03DAB2FB681B681A613B687A689A
:101F70000E49F86800F098F80346002B01D00123C1
:101F800010E07B89DAB2FB681B681A613B687A68EB
:101F90000749F86800F088F80346002B01D00123B8
:101FA00000E0002318461837BD4680BD0800010038
:101FB0000200010080B584B000AFF860B9603B60FA
:101FC0001346FB7148E03B68B3F1FF3F44D0FFF795
:101FD00065FA0246BB69D31A3A689A4202D33B6853
:101FE000002B39D1BB681B0CDBB2012B0DD1FB6878
:101FF0001B685B69DA43BB6813409BB2002B0CBFC4
:1020000001230023DBB21A460CE0FB681B689B69C6
:10201000DA43BB6813409BB2002B0CBF01230023A3
:10202000DBB21A46FB799A4216D1FB6800221A638A
:10203000FB68202283F83D20FB68002283F83E20C5
:10204000FB681B6C43F02002FB681A64FB680022EB
:1020500083F83C20012323E0BB681B0CDBB2012B7F
:102060000DD1FB681B685B69DA43BB6813409BB208
:10207000002B0CBF01230023DBB21A460CE0FB68E7
:102080001B689B69DA43BB6813409BB2002B0CBFF3
:1020900001230023DBB21A46FB799A4293D0002336
:1020A00018461037BD4680BD80B584B000AFF860DB
:1020B000B9607A603B6071E0FB681B685B6903F4A0
:1020C0008063B3F5806F23D1FB681B681A68FB68D7
:1020D0001B6842F400721A60FB681B686FF4806230
:1020E0005A61FB6800221A63FB68202283F83D20B6
:1020F000FB68002283F83E20FB681B6C43F004025F
:10210000FB681A64FB68002283F83C20012367E027
:102110007B68B3F1FF3F41D0FFF7C0F902463B684F
:10212000D31A7A689A4202D37B68002B36D1BB68F7
:102130001B0CDBB2012B0CD1FB681B685B69DA431B
:10214000BB6813409BB2002B14BF01230023DBB2FA
:102150000BE0FB681B689B69DA43BB6813409BB2CA
:10216000002B14BF01230023DBB2002B16D0FB6829
:1021700000221A63FB68202283F83D20FB680022BE
:1021800083F83E20FB681B6C43F02002FB681A6456
:10219000FB68002283F83C20012321E0BB681B0C74
:1021A000DBB2012B0CD1FB681B685B69DA43BB68AF
:1021B00013409BB2002B14BF01230023DBB20BE0C2
:1021C000FB681B689B69DA43BB6813409BB2002B1A
:1021D00014BF01230023DBB2002B7FF46DAF00237B
:1021E00018461037BD4680BD80B584B000AFF8609A
:1021F000B9607A6034E0F86800F086F80346002B96
:1022000001D0012334E0BB68B3F1FF3F28D0FFF7D2
:1022100045F902467B68D31ABA689A4202D3BB6872
:10222000002B1DD1FB681B685B6903F08003802BCA
:1022300016D0FB6800221A63FB68202283F83D2039
:10224000FB68002283F83E20FB681B6C43F02002F1
:10225000FB681A64FB68002283F83C20012307E036
:10226000FB681B685B6903F08003802BC3D10023EC
:1022700018461037BD4680BD80B584B000AFF86009
:10228000B9607A6034E0F86800F03EF80346002B4D
:1022900001D0012334E0BB68B3F1FF3F28D0FFF742
:1022A000FDF802467B68D31ABA689A4202D3BB682B
:1022B000002B1DD1FB681B685B6903F00403042B32
:1022C00016D0FB6800221A63FB68202283F83D20A9
:1022D000FB68002283F83E20FB681B6C43F0200261
:1022E000FB681A64FB68002283F83C20012307E0A6
:1022F000FB681B685B6903F00403042BC3D1002354
:1023000018461037BD4680BD80B483B000AF7860FA
:102310007B681B685B6903F48063B3F5806F1BD136
:102320007B681B686FF480625A617B6800221A63C5
:102330007B68202283F83D207B68002283F83E20C2
:102340007B681B6C43F004027B681A647B68002284
:1023500083F83C20012300E0002318460C37BD46DB
:102360005DF8047B7047000080B586B000AF7860F0
:102370007B68002B01D1012367E27B681B6803F0B7
:102380000103002B75D0884B9B6803F00C03042BD2
:102390000CD0854B9B6803F00C03082B12D1824BA9
:1023A0005B6803F48003B3F5800F0BD17E4B1B6891
:1023B00003F40033002B5BD07B685B68002B57D1A4
:1023C000012342E27B685B68B3F5803F06D1764B20
:1023D0001B68754A43F4803313601DE07B685B68BB
:1023E000B3F5A02F0CD1704B1B686F4A43F48023C8
:1023F00013606D4B1B686C4A43F4803313600BE031
:10240000694B1B68684A23F480331360664B1B6872
:10241000654A23F4802313607B685B68002B13D02C
:10242000FFF73CF8386108E0FFF738F802463B69EF
:10243000D31A642B01D9032307E25B4B1B6803F417
:102440000033002BF0D014E0FFF728F8386108E0E3
:10245000FFF724F802463B69D31A642B01D9032302
:10246000F3E1514B1B6803F40033002BF0D100E083
:1024700000BF7B681B6803F00203002B63D04A4B4C
:102480009B6803F00C03002B0BD0474B9B6803F0B9
:102490000C03082B1CD1444B5B6803F48003002B16
:1024A00016D1414B1B6803F00203002B05D07B685B
:1024B000DB68012B01D00123C7E13B4B1B6823F0F4
:1024C000F8027B681B69DB00374913430B603AE075
:1024D0007B68DB68002B20D0344B01221A60FEF7AA
:1024E000DDFF386108E0FEF7D9FF02463B69D31AE9
:1024F000022B01D90323A8E12B4B1B6803F0020335
:10250000002BF0D0284B1B6823F0F8027B681B6976
:10251000DB00254913430B6015E0244B00221A60B1
:10252000FEF7BCFF386108E0FEF7B8FF02463B69E2
:10253000D31A022B01D9032387E11B4B1B6803F03D
:102540000203002BF0D17B681B6803F00803002B0B
:1025500036D07B685B69002B16D0154B01221A60C0
:10256000FEF79CFF386108E0FEF798FF02463B69E2
:10257000D31A022B01D9032367E10B4B5B6F03F0E6
:102580000203002BF0D01BE0094B00221A60FEF77B
:1025900085FF38610EE0FEF781FF02463B69D31AE2
:1025A000022B07D9032350E10038024000004742C4
:1025B000800E4742884B5B6F03F00203002BEAD189
:1025C0007B681B6803F00403002B00F09780002356
:1025D000FB75814B1B6C03F08053002B0FD1002344
:1025E000BB607D4B1B6C7C4A43F0805313647A4B79
:1025F0001B6C03F08053BB60BB680123FB75774BFA
:102600001B6803F48073002B18D1744B1B68734A4A
:1026100043F480731360FEF741FF386108E0FEF772
:102620003DFF02463B69D31A022B01D903230CE17B
:102630006A4B1B6803F48073002BF0D07B689B68A7
:10264000012B06D1644B1B6F634A43F001031367F0
:102650001CE07B689B68052B0CD15F4B1B6F5E4AAF
:1026600043F0040313675C4B1B6F5B4A43F00103A9
:1026700013670BE0584B1B6F574A23F00103136796
:10268000554B1B6F544A23F0040313677B689B6808
:10269000002B15D0FEF702FF38610AE0FEF7FEFEC0
:1026A00002463B69D31A41F28832934201D903238F
:1026B000CBE0494B1B6F03F00203002BEED014E07C
:1026C000FEF7ECFE38610AE0FEF7E8FE02463B69E1
:1026D000D31A41F28832934201D90323B5E03E4B2D
:1026E0001B6F03F00203002BEED1FB7D012B05D104
:1026F000394B1B6C384A23F0805313647B689B6909
:10270000002B00F0A180344B9B6803F00C03082BD6
:102710005CD07B689B69022B41D1314B00221A604F
:10272000FEF7BCFE386108E0FEF7B8FE02463B69E2
:10273000D31A022B01D9032387E0274B1B6803F030
:102740000073002BF0D17B68DA697B681B6A1A433F
:102750007B685B6A9B011A437B689B6A5B08013B51
:102760001B041A437B68DB6A1B061B4913434B603F
:102770001B4B01221A60FEF791FE386108E0FEF75C
:102780008DFE02463B69D31A022B01D903235CE07C
:10279000114B1B6803F00073002BF0D054E0104B7A
:1027A00000221A60FEF77AFE386108E0FEF776FE36
:1027B00002463B69D31A022B01D9032345E0064B9D
:1027C0001B6803F00073002BF0D13DE07B689B6930
:1027D000012B07D1012338E000380240007000408F
:1027E000600047421B4B5B68FB607B689B69012B69
:1027F00028D0FB6803F480027B68DB699A4221D110
:10280000FB6803F03F027B681B6A9A421AD1FA68A0
:1028100047F6C07313407A68526A9201934211D10D
:10282000FB6803F440327B689B6A5B08013B1B0436
:102830009A4207D1FB6803F070627B68DB6A1B0673
:102840009A4201D0012300E0002318461837BD4604
:1028500080BD00BF0038024080B584B000AF786012
:1028600039607B68002B01D10123CCE0684B1B68E9
:1028700003F007033A689A420CD9654B3A68D2B222
:102880001A70634B1B6803F007033A689A4201D041
:102890000123B8E07B681B6803F00203002B20D003
:1028A0007B681B6803F00403002B05D0594B9B6821
:1028B000584A43F4E05393607B681B6803F00803B5
:1028C000002B05D0534B9B68524A43F460439360FE
:1028D000504B9B6823F0F0027B689B684D49134383
:1028E0008B607B681B6803F00103002B44D07B687E
:1028F0005B68012B07D1474B1B6803F40033002BA7
:1029000019D101237FE07B685B68022B03D07B68D1
:102910005B68032B07D13F4B1B6803F00073002B50
:1029200009D101236FE03B4B1B6803F00203002B2E
:1029300001D1012367E0374B9B6823F003027B68DA
:102940005B68344913438B60FEF7A8FDF8600AE02A
:10295000FEF7A4FD0246FB68D31A41F28832934287
:1029600001D903234FE02B4B9B6803F00C027B68DB
:102970005B689B009A42EBD1254B1B6803F0070371
:102980003A689A420CD2224B3A68D2B21A70204B63
:102990001B6803F007033A689A4201D0012332E032
:1029A0007B681B6803F00403002B08D0194B9B685D
:1029B00023F4E0527B68DB68164913438B607B6825
:1029C0001B6803F00803002B09D0124B9B6823F40B
:1029D00060427B681B69DB000E4913438B6000F08B
:1029E00021F802460B4B9B681B0903F00F030A49B1
:1029F000CB5C22FA03F3094A1360094B1B681846A3
:102A0000FEF7B0FB002318461037BD4680BD00BF5F
:102A1000003C024000380240808000080000002096
:102A2000040000202DE9B04F94B000AF00237B6478
:102A30000023FB6400233B640023BB64794B9B6849
:102A400003F00C03082B0DD0082B00F2E180002BC3
:102A500002D0042B03D0DBE0734BBB64DBE0734B91
:102A6000BB64D8E06F4B5B6803F03F037B646D4B46
:102A70005B6803F48003002B63D06A4B5B689B099F
:102A80000022BB63FA63BB6BC3F308033B63002301
:102A90007B63D7E90C4522462B464FF000004FF0F0
:102AA0000001590141EAD261500102460B4621461C
:102AB000511A3961294663EB01037B614FF0000233
:102AC0004FF00003D7E904AB59468B01514643EA66
:102AD000916351468A015146B2EB0108594663EBB6
:102AE00001094FF000024FF000034FEAC90343EA27
:102AF00058734FEAC80290469946234618EB0303E1
:102B0000BB602B4649EB0303FB604FF000024FF024
:102B10000003D7E9024529464B02214643EAD15337
:102B200021464A02104619467B6C0022BB62FA62BB
:102B3000D7E90A23FDF79EFB02460B461346FB64CA
:102B400058E0384B5B689B09002218461146C0F3D9
:102B500008033B6200237B62D7E9088942464B4663
:102B60004FF000004FF00001590141EAD2615001DD
:102B700002460B464146B2EB010A494663EB010BA4
:102B80004FF000024FF000034FEA8B1343EA9A63C1
:102B90004FEA8A12B2EB0A0463EB0B054FF0000216
:102BA0004FF00003EB0043EA5473E20014461D4665
:102BB0004346E3183B604B4645EB03037B604FF015
:102BC00000024FF00003D7E9004529468B02214659
:102BD00043EA915321468A02104619467B6C002233
:102BE000BB61FA61D7E90623FDF744FB02460B46B9
:102BF0001346FB640B4B5B681B0C03F003030133B0
:102C00005B003B64FA6C3B6CB2FBF3F3BB6402E029
:102C1000054BBB6400BFBB6C18465037BD46BDE8D2
:102C2000B08F00BF003802400024F40000127A0088
:102C300080B400AF034B1B681846BD465DF8047BAB
:102C4000704700BF0000002080B500AFFFF7F0FF25
:102C50000246054B9B689B0A03F007030349CB5CC4
:102C600022FA03F3184680BD003802409080000825
:102C700080B483B000AF786039607B680F221A603F
:102C8000124B9B6803F003027B685A600F4B9B68F2
:102C900003F0F0027B689A600C4B9B6803F4E052EF
:102CA0007B68DA60094B9B68DB0803F4E0527B68C1
:102CB0001A61074B1B6803F007023B681A6000BFEC
:102CC0000C37BD465DF8047B704700BF00380240FA
:102CD000003C024080B582B000AF78607B68002B7A
:102CE00001D1012341E07B6893F83D30DBB2002B3A
:102CF00006D17B68002283F83C207868FEF710FA42
:102D00007B68022283F83D207B681A687B68043365
:102D10001946104600F070FA7B68012283F84620BD
:102D20007B68012283F83E207B68012283F83F20E4
:102D30007B68012283F840207B68012283F84120D0
:102D40007B68012283F842207B68012283F84320BC
:102D50007B68012283F844207B68012283F84520A8
:102D60007B68012283F83D20002318460837BD46C2
:102D700080BD000080B485B000AF78607B6893F8B8
:102D80003D30DBB2012B01D0012344E07B680222FD
:102D900083F83D207B681B68DA687B681B6842F01B
:102DA0000102DA607B681B681E4A934218D07B6878
:102DB0001B68B3F1804F13D07B681B681A4A93429B
:102DC0000ED07B681B68194A934209D07B681B6848
:102DD000174A934204D07B681B68164A934211D16C
:102DE0007B681B689B6803F00703FB60FB68062B8E
:102DF00010D07B681B681A687B681B6842F0010270
:102E00001A6007E07B681B681A687B681B6842F0E1
:102E100001021A60002318461437BD465DF8047B92
:102E2000704700BF0000014000040040000800405F
:102E3000000C00400040014080B584B000AF7860D5
:102E40007B681B68DB68FB607B681B681B69BB6079
:102E5000BB6803F00203002B20D0FB6803F00203E1
:102E6000002B1BD07B681B686FF002021A617B6825
:102E700001221A777B681B689B6903F00303002B10
:102E800003D0786800F099F905E0786800F08BF9D4
:102E9000786800F09CF97B6800221A77BB6803F021
:102EA0000403002B20D0FB6803F00403002B1BD08D
:102EB0007B681B686FF004021A617B6802221A7734
:102EC0007B681B689B6903F44073002B03D0786810
:102ED00000F073F905E0786800F065F9786800F0B3
:102EE00076F97B6800221A77BB6803F00803002B91
:102EF00020D0FB6803F00803002B1BD07B681B6805
:102F00006FF008021A617B6804221A777B681B68DD
:102F1000DB6903F00303002B03D0786800F04DF960
:102F200005E0786800F03FF9786800F050F97B68B8
:102F300000221A77BB6803F01003002B20D0FB6837
:102F400003F01003002B1BD07B681B686FF010028E
:102F50001A617B6808221A777B681B68DB6903F4B7
:102F60004073002B03D0786800F027F905E07868FB
:102F700000F019F9786800F02AF97B6800221A77C6
:102F8000BB6803F00103002B0CD0FB6803F00103C6
:102F9000002B07D07B681B686FF001021A6178680C
:102FA000FEF736F8BB6803F08003002B0CD0FB68FB
:102FB00003F08003002B07D07B681B686FF0800252
:102FC0001A61786800F0B6FABB6803F04003002B82
:102FD0000CD0FB6803F04003002B07D07B681B6814
:102FE0006FF040021A61786800F0FBF8BB6803F0EC
:102FF0002003002B0CD0FB6803F02003002B07D02C
:103000007B681B686FF020021A61786800F088FA0C
:1030100000BF1037BD4680BD80B584B000AF78607A
:1030200039600023FB737B6893F83C30012B01D19E
:103030000223B4E07B68012283F83C207B680222F3
:1030400083F83D207B681B689B68BB60BB6823F0EE
:103050007703BB60BB6823F47F43BB607B681B685E
:10306000BA689A603B681B68B3F5005F3ED0B3F561
:10307000005F00F28780B3F5805F00F08680B3F5D3
:10308000805F7FD8702B1AD0702B7BD8602B50D0EC
:10309000602B77D8502B3CD0502B73D8402B58D076
:1030A000402B6FD8302B64D0302B6BD8202B60D0C6
:1030B000202B67D8002B5CD0102B5AD062E07B68A5
:1030C00018683B6899683B685A683B68DB6800F0A1
:1030D00099F97B681B689B68BB60BB6843F077030A
:1030E000BB607B681B68BA689A604FE07B681868B1
:1030F0003B6899683B685A683B68DB6800F082F976
:103100007B681B689A687B681B6842F480429A60FF
:103110003CE07B6818683B6859683B68DB681A4686
:1031200000F0F6F87B681B685021184600F04FF954
:103130002CE07B6818683B6859683B68DB681A4676
:1031400000F015F97B681B686021184600F03FF914
:103150001CE07B6818683B6859683B68DB681A4666
:1031600000F0D6F87B681B684021184600F02FF964
:103170000CE07B681A683B681B681946104600F033
:1031800026F903E00123FB7300E000BF7B68012206
:1031900083F83D207B68002283F83C20FB7B1846A7
:1031A0001037BD4680BD80B483B000AF786000BFEB
:1031B0000C37BD465DF8047B704780B483B000AF28
:1031C000786000BF0C37BD465DF8047B704780B463
:1031D00083B000AF786000BF0C37BD465DF8047B5C
:1031E000704780B483B000AF786000BF0C37BD4635
:1031F0005DF8047B7047000080B485B000AF786054
:1032000039607B681B68FB607B683A4A93420FD049
:103210007B68B3F1804F0BD07B68374A934207D06D
:103220007B68364A934203D07B68354A934208D183
:10323000FB6823F07003FB603B685B68FA6813432C
:10324000FB607B682B4A93421BD07B68B3F1804FB5
:1032500017D07B68284A934213D07B68274A934251
:103260000FD07B68264A93420BD07B68254A934255
:1032700007D07B68244A934203D07B68234A934259
:1032800008D1FB6823F44073FB603B68DB68FA6895
:103290001343FB60FB6823F080023B685B691343C8
:1032A000FB607B68FA681A603B689A687B68DA6240
:1032B0003B681A687B689A627B680E4A934203D126
:1032C0003B681A697B681A637B6801225A617B68D4
:1032D0001B6903F00103012B05D17B681B6923F0F7
:1032E00001027B681A6100BF1437BD465DF8047B9C
:1032F000704700BF0000014000040040000800408B
:10330000000C0040004001400044014000480140E2
:1033100080B487B000AFF860B9607A60FB681B6A60
:103320007B61FB681B6A23F00102FB681A62FB6881
:103330009B693B613B6923F0F0033B617B681B01A8
:103340003A6913433B617B6923F00A037B617A6925
:10335000BB6813437B61FB683A699A61FB687A69D1
:103360001A6200BF1C37BD465DF8047B704780B40D
:1033700087B000AFF860B9607A60FB681B6A7B6158
:10338000FB681B6A23F01002FB681A62FB689B69EA
:103390003B613B6923F470433B617B681B033A69E3
:1033A00013433B617B6923F0A0037B61BB681B0176
:1033B0007A6913437B61FB683A699A61FB687A69B1
:1033C0001A6200BF1C37BD465DF8047B704780B4AD
:1033D00085B000AF786039607B689B68FB60FB68F4
:1033E00023F07003FB603A68FB68134343F0070364
:1033F000FB607B68FA689A6000BF1437BD465DF8D1
:10340000047B704780B487B000AFF860B9607A6021
:103410003B60FB689B687B617B6923F47F437B6136
:103420003B681A027B681A43BB6813437A691343EB
:103430007B61FB687A699A6000BF1C37BD465DF806
:10344000047B704780B485B000AF786039607B68DA
:1034500093F83C30012B01D1022350E07B6801221C
:1034600083F83C207B68022283F83D207B681B6840
:103470005B68FB607B681B689B68BB60FB6823F034
:103480007003FB603B681B68FA681343FB607B6852
:103490001B68FA685A607B681B681C4A934218D004
:1034A0007B681B68B3F1804F13D07B681B68184A98
:1034B00093420ED07B681B68164A934209D07B6802
:1034C0001B68154A934204D07B681B68134A9342D9
:1034D0000CD1BB6823F08003BB603B685B68BA68B3
:1034E0001343BB607B681B68BA689A607B680122E3
:1034F00083F83D207B68002283F83C200023184697
:103500001437BD465DF8047B704700BF00000140E2
:103510000004004000080040000C00400040014052
:1035200080B483B000AF786000BF0C37BD465DF853
:10353000047B704780B483B000AF786000BF0C3765
:10354000BD465DF8047B704780B582B000AF7860FF
:103550007B6803F108027B685A607B684FF0FF329A
:103560009A607B6803F108027B68DA607B6803F18C
:1035700008027B681A617B6800221A6040F2191009
:1035800003F008FD00BF0837BD4680BD80B582B09E
:1035900000AF78607B6800221A614FF48D7003F0F1
:1035A000F9FC00BF0837BD4680BD80B584B000AFD0
:1035B000786039603B681B68BB60BB68B3F1FF3F54
:1035C00003D17B681B69FB600CE07B680833FB6000
:1035D00002E0FB685B68FB60FB685B681B68BA68BD
:1035E0009A42F6D2FB685A683B685A603B685B684F
:1035F0003A689A603B68FA689A60FB683A685A6071
:103600003B687A681A617B681B685A1C7B681A6081
:103610004FF48E7003F0BEFC00BF1037BD4680BD76
:1036200080B584B000AF78607B681B69FB607B6805
:103630005B687A6892689A607B689B687A6852686F
:103640005A60FB685B687A689A4203D17B689A6823
:10365000FB685A607B6800221A61FB681B685A1E6F
:10366000FB681A60FB681B68194640F21D1003F0E6
:10367000CDFCFB681B6818461037BD4680BD0000B6
:1036800080B586B000AF7860396001237B617B68CC
:103690003B613B69002B0BD14FF0500383F3118842
:1036A000BFF36F8FBFF34F8FFB6000BF00BFFDE71D
:1036B0003B69002B5DD03B69DB6B002B59D03B692C
:1036C0001A6C3B69DB6B0021A3FB0223002B00D0AB
:1036D00001210B46002B4CD101F08CFF3B691A688D
:1036E0003B69DB6B3969096C01FB03F31A443B69E5
:1036F0009A603B6900229A633B691A683B695A6089
:103700003B691A683B69DB6B013B3969096C01FB5A
:1037100003F31A443B69DA603B69FF2283F84420D3
:103720003B69FF2283F845203B68002B14D13B699D
:103730001B69002B1AD03B691033184601F06EF854
:103740000346002B12D0184B4FF080521A60BFF383
:103750004F8FBFF36F8F09E03B6910331846FFF7B7
:10376000F3FE3B6924331846FFF7EEFE01F074FFC9
:1037700001E000237B617B69002B0BD14FF05003EC
:1037800083F31188BFF36F8FBFF34F8FBB6000BF10
:1037900000BFFDE77B691946962003F037FC7B6983
:1037A00018461837BD4680BD04ED00E080B58AB0EC
:1037B00002AFF860B9601346FB710023FB61FB6840
:1037C000002B2ED00021BA68FB68A3FB0223002B3C
:1037D00000D001210B46002B23D1FB68BA6802FB05
:1037E00003F313F1510F1CD8FB68BA6802FB03F313
:1037F000BB61BB695033184601F0E8FFF861FB6913
:10380000002B1DD0FB697B617B6950337B61FA79AA
:10381000FB69009313467A69B968F86800F01EF8EE
:103820000EE0FB69002B0BD14FF0500383F311889E
:10383000BFF36F8FBFF34F8F3B6100BF00BFFDE74A
:10384000FB69184603F07CFD03461946982003F0F7
:10385000DDFBFB6918462037BD4680BD80B584B0CE
:1038600000AFF860B9607A60FB70BB68002B03D1D1
:10387000BB69BA691A6002E0BB697A681A60BB6901
:10388000FA68DA63BB69BA681A640121B869FFF79C
:10389000F7FEBB69FA7883F84C2000BF1037BD46AD
:1038A00080BD000080B58CB000AFF860B9607A6070
:1038B0000023FB62FB68BB62BB6A002B0BD14FF09D
:1038C000500383F31188BFF36F8FBFF34F8F3B62B9
:1038D00000BF00BFFDE7BB68002B03D1BB6A1B6CB8
:1038E000002B01D1012300E00023002B0BD14FF06E
:1038F000500383F31188BFF36F8FBFF34F8FFB61CA
:1039000000BF00BFFDE701F0ABF90346002B02D179
:103910007B68002B01D1012300E00023002B0BD199
:103920004FF0500383F31188BFF36F8FBFF34F8FB6
:10393000BB6100BF00BFFDE701F05CFEBB6A9B6B93
:103940007B627B6A002B23D0B968B86A00F098F8D4
:103950007B6A5A1EBB6A9A63BB6A1B69002B0FD035
:10396000BB6A1033184600F059FF0346002B07D0FE
:10397000424B4FF080521A60BFF34F8FBFF36F8FEF
:1039800001F06AFE0121A42003F040FB012371E055
:103990007B68002B07D101F05FFE0021A42003F01B
:1039A00035FB002366E0FB6A002B06D107F110030C
:1039B000184601F013F80123FB6201F04DFE00F000
:1039C000FBFB01F017FEBB6A93F844305BB2B3F126
:1039D000FF3F03D1BB6A002283F84420BB6A93F8FF
:1039E00045305BB2B3F1FF3F03D1BB6A002283F8DD
:1039F000452001F031FE3A1D07F11003114618462B
:103A000001F004F80346002B23D1B86A00F0B0F8A7
:103A10000346002B17D0BB6A24337A681146184638
:103A200000F08AFEB86A00F051F800F0D3FB0346BC
:103A3000002B81D1114B4FF080521A60BFF34F8F92
:103A4000BFF36F8F78E7B86A00F040F800F0C2FB70
:103A500072E7B86A00F03AF800F0BCFBB86A00F010
:103A600087F80346002B3FF467AF0021A42003F042
:103A7000CDFA002318463037BD4680BD04ED00E086
:103A800080B582B000AF786039607B681B6C002B1A
:103A900018D07B68DA687B681B6C1A447B68DA6034
:103AA0007B68DA687B689B689A4203D37B681A68F4
:103AB0007B68DA607B68D9687B681B6C1A4638685B
:103AC00004F013F800BF0837BD4680BD80B584B050
:103AD00000AF786001F08EFD7B6893F84530FB7392
:103AE00011E07B685B6A002B12D07B682433184698
:103AF00000F094FE0346002B01D000F0F3FFFB7BA7
:103B0000013BDBB2FB7397F90F30002BE9DC00E0DF
:103B100000BF7B68FF2283F8452001F09DFD01F086
:103B200069FD7B6893F84430BB7311E07B681B69C7
:103B3000002B12D07B681033184600F06FFE03464E
:103B4000002B01D000F0CEFFBB7B013BDBB2BB738F
:103B500097F90E30002BE9DC00E000BF7B68FF2204
:103B600083F8442001F078FD00BF1037BD4680BDCA
:103B700080B584B000AF786001F03CFD7B689B6B42
:103B8000002B02D10123FB6001E00023FB6001F068
:103B900063FDFB6818461037BD4680BD80B586B012
:103BA00000AF7860396000233B617B68002B0BD14C
:103BB0004FF0500383F31188BFF36F8FBFF34F8F24
:103BC000FB6000BF00BFFDE73B68002B24D0002353
:103BD0007B611EE0184A7B69DB0013445B687A68EE
:103BE0009A4205D17B69DB00134A13443B6113E021
:103BF0003B69002B0AD1104A7B6952F83330002B05
:103C000004D17B69DB000C4A13443B617B690133BF
:103C10007B617B69072BDDD93B69002B05D03B69B4
:103C20003A681A603B697A685A60B62003F0B2F9C4
:103C300000BF1837BD4680BDA401002080B586B006
:103C400000AFF860B9607A60FB687B6101F0D2FC7C
:103C50007B6993F844305BB2B3F1FF3F03D17B69DA
:103C6000002283F844207B6993F845305BB2B3F1BE
:103C7000FF3F03D17B69002283F8452001F0ECFC73
:103C80007B699B6B002B06D17B6924337A68B9680A
:103C9000184600F079FD7869FFF718FFB92003F0A6
:103CA00079F900BF1837BD4680BD80B58AB004AF32
:103CB000F860B9607A603B607B689B00184601F051
:103CC00085FD38613B69002B13D0582001F07EFD43
:103CD00078617B69002B08D058220021786903F0B5
:103CE0009BFE7B693A691A6305E0386901F0A0FE22
:103CF00001E000237B617B69002B0DD0002303933F
:103D00007B6902937B6A01933B6A00933B687A6804
:103D1000B968F86800F02DF87B6918461837BD4679
:103D200080BD80B588B002AFF860B9607A603B6052
:103D30007B6A01933B6A00933B687A68B968F868CC
:103D4000FFF7B3FF38613B69002B05D0386900F0FD
:103D5000A1F801237B6102E04FF0FF337B617B69B7
:103D60001946C22003F052F97B6918461837BD4640
:103D700080BD80B588B000AFF860B9607A603B6004
:103D80003B6B186B7B689B001A46A52103F044FE31
:103D90003B6B1A6B7B6803F18043013B9B00134430
:103DA000BB61BB6923F00703BB61BB6903F0070379
:103DB000002B0BD04FF0500383F31188BFF36F8FAC
:103DC000BFF34F8F7B6100BF00BFFDE7BB68002BD7
:103DD0001ED00023FB6112E0BA68FB691344197816
:103DE0003A6BFB69134434330A461A70BA68FB69AC
:103DF00013441B78002B06D0FB690133FB61FB6980
:103E0000092BE9D900E000BF3B6B002283F83D207D
:103E1000BB6A042B0BD94FF0500383F31188BFF317
:103E20006F8FBFF34F8F3B6100BF00BFFDE7BB6AE1
:103E3000042B01D90423BB623B6BBA6ADA623B6B89
:103E4000BA6A9A643B6B04331846FFF79FFB3B6BDF
:103E500018331846FFF79AFB3B6B3A6B1A61BB6A43
:103E6000C3F105023B6B9A613B6B3A6B5A623A684D
:103E7000F968B86901F03CFA02463B6B1A60FB6ACC
:103E8000002B02D0FB6A3A6B1A6000BF2037BD4698
:103E900080BD0000B0B586B002AF786001F0AAFB2B
:103EA000504B1B6801334F4A13604F4B1B68002B6C
:103EB00009D14D4A7B6813604A4B1B68012B10D116
:103EC00000F034FE0DE0494B1B68002B09D1464B36
:103ED0001B68DA6A7B68DB6A9A4202D8424A7B68CE
:103EE0001360434B1B680133414A1360404B1A680F
:103EF0007B681A647B68002B16D07B68184603F039
:103F0000F9F878687B6803F134017B68DA6A7B68CA
:103F10001B6B1D467B681B681C467B681B6BE31A8A
:103F200000932B4601F0D2FE7B68184603F066F939
:103F30007B68DB6A01229A402E4B1B6813432D4A93
:103F400013607B68DA6A2C4913469B0013449B007C
:103F50000B4404331B68FB607B68FA689A60FB685B
:103F60009A687B68DA60FB689B687A6804325A60FA
:103F70007B681A1DFB689A607B68DA6A13469B00AF
:103F800013449B001C4A1A447B685A617B68DA6AB6
:103F9000194913469B0013449B000B441B687A6825
:103FA000D26A591C144813469B0013449B000344D7
:103FB000196001F051FB0D4B1B68002B0ED00A4B12
:103FC0001B68DA6A7B68DB6A9A4207D20B4B4FF0B8
:103FD00080521A60BFF34F8FBFF36F8F00BF10374F
:103FE000BD46B0BDBC020020E4010020C802002094
:103FF000D8020020C4020020E801002004ED00E007
:1040000080B584B000AF78600023FB607B68002B34
:1040100018D000F0D1F8144B1B68012B0BD04FF0D7
:10402000500383F31188BFF36F8FBFF34F8FBB60D3
:1040300000BF00BFFDE70021786800F033FE00F00C
:10404000C9F8F860FB68002B07D1084B4FF080528D
:104050001A60BFF34F8FBFF36F8FC52002F09AFF36
:1040600000BF1037BD4680BDE402002004ED00E033
:1040700080B58AB002AF0123FB6100233B610023BE
:104080007B6111E01C4A7B69134419783A1D7B69F6
:1040900013440A461A703A1D7B6913441B78002B9F
:1040A00006D07B6901337B617B69092BEADD00E087
:1040B00000BF0023BB6115E0104B3B61BB699B0057
:1040C0000F4A1344391D01930023009300238222D9
:1040D0003869FFF726FEF861FB69002B06D0BB6943
:1040E0000133BB61BB69002BE6DD00E000BFFB696B
:1040F00018462037BD4680BD04800008FD4A0008F0
:10410000E002002080B584B000AFFFF7B1FFF86097
:10411000FB68012B02D100F053FEF860FB68012B15
:1041200024D14FF0500383F31188BFF36F8FBFF397
:104130004F8FBB6000BF1A4B4FF0FF321A60194B14
:1041400001221A60184B00221A60184B1A68184B8B
:104150001B689A4202D102F0B1FF04E0144B1B68C5
:10416000184603F009F801F055F90FE0FB68B3F1C8
:10417000FF3F0BD14FF0500383F31188BFF36F8FD4
:10418000BFF34F8F7B6000BF00BFFDE7094B1B688B
:10419000CD2002F0FFFE00BF1037BD4680BD00BF3E
:1041A000DC020020C8020020C0020020E002002043
:1041B000E40100200C00002080B500AF044B1B6818
:1041C0000133034A1360CF2002F0E4FE00BF80BD3C
:1041D000E402002080B588B000AF0023FB6100231B
:1041E000BB6101F007FA00233B617A4B1B68002B8F
:1041F0000BD14FF0500383F31188BFF36F8FBFF3E0
:104200004F8F3B6000BF00BFFDE7724B1B68013B57
:10421000704A13606F4B1B68002B40F0CE806E4BD2
:104220001B68002B00F0C98092E06C4BDB68DB68F8
:10423000FB61FB699B6AFB60FB69DB69FA69126AD7
:104240009A60FB691B6AFA69D2695A60FB685A680E
:10425000FB6918339A4203D1FB691A6AFB685A60FA
:10426000FB6900229A62FB681B685A1EFB681A6091
:10427000FB695B69BB60FB699B68FA69D2689A60FD
:10428000FB69DB68FA6992685A60BB685A68FB6927
:1042900004339A4203D1FB69DA68BB685A60FB6950
:1042A00000225A61BB681B685A1EBB681A60FB6912
:1042B000184602F0A3FFFB69DB6A01229A40484BD3
:1042C0001B681343464A1360FB69DA6A4549134683
:1042D0009B0013449B000B4404331B687B60FB6909
:1042E0007A689A607B689A68FB69DA607B689B6889
:1042F000FA6904325A60FB691A1D7B689A60FB698F
:10430000DA6A13469B0013449B00364A1A44FB6941
:104310005A61FB69DA6A334913469B0013449B00D8
:104320000B441B68FA69D26A591C2E4813469B003D
:1043300013449B0003441960FB69DA6A2A4B1B682B
:10434000DB6A9A4204D9294A3B69012142F82310C9
:10435000224B1B68002B7FF468AFFB69002B01D058
:1043600000F062FC224B1B687B617B69002B12D042
:1043700000F054F80346002B04D01C4A3B6901218D
:1043800042F823107B69013B7B617B69002BEFD1F5
:10439000174B00221A60154A3B6952F82330002B54
:1043A0000BD00123BB61104B1B68124B4FF08052A6
:1043B0001A60BFF34F8FBFF36F8F01F04DF9BB69E8
:1043C0001946D02002F022FEBB6918462037BD46B0
:1043D00080BD00BFE4020020BC0200207C0200205F
:1043E000C4020020E8010020E4010020D0020020E7
:1043F000CC02002004ED00E080B582B000AF064B97
:104400001B687B607968D12002F000FE7B6818464B
:104410000837BD4680BD00BFC002002080B58AB00D
:1044200000AF00237B62834B1B68002B40F0F380BE
:10443000814B1B6801333B627F4A3B6A13603B6AD6
:10444000002B21D17D4B1B681B68002B0BD04FF03C
:10445000500383F31188BFF36F8FBFF34F8F7B60DF
:1044600000BF00BFFDE7754B1B68FB61744B1B6809
:10447000724A1360724AFB691360724B1B68013306
:10448000704A136000F0D0FB6F4B1B683A6A9A4287
:10449000C0F0AC80694B1B681B68002B04D16A4BD1
:1044A0004FF0FF321A60A1E0644B1B68DB68DB68E9
:1044B000BB61BB695B687B613A6A7B699A4203D2E4
:1044C000614A7B69136091E0BB695B693B61BB69D1
:1044D0009B68BA69D2689A60BB69DB68BA699268FE
:1044E0005A603B695A68BB6904339A4203D1BB697D
:1044F000DA683B695A60BB6900225A613B691B68F4
:104500005A1E3B691A60BB699B6A002B1ED0BB69AF
:104510009B6AFB60BB69DB69BA69126A9A60BB6916
:104520001B6ABA69D2695A60FB685A68BB6918335A
:104530009A4203D1BB691A6AFB685A60BB690022C0
:104540009A62FB681B685A1EFB681A60BB691846B2
:1045500002F054FEBB69DB6A01229A403B4B1B68A8
:1045600013433A4A1360BB69DA6A394913469B0020
:1045700013449B000B4404331B68BB60BB69BA68DF
:104580009A60BB689A68BB69DA60BB689B68BA6965
:1045900004325A60BB691A1DBB689A60BB69DA6A4B
:1045A00013469B0013449B00294A1A44BB695A6175
:1045B000BB69DA6A264913469B0013449B000B44EF
:1045C0001B68BA69D26A591C214813469B001344E0
:1045D0009B0003441960BB69DA6A1E4B1B68DB6AE7
:1045E0009A427FF657AF01237B6253E7194B1B6852
:1045F000DA6A174913469B0013449B000B441B685F
:10460000012B01D901237B62134B1B68002B07D0C0
:1046100001237B6204E0114B1B6801330F4A1360D6
:104620007B6A1946DB2002F0F1FC7B6A18462837CA
:10463000BD4680BDE4020020C002002074020020BC
:1046400078020020D4020020DC020020C4020020F6
:10465000E8010020E4010020D0020020CC0200206C
:1046600080B586B000AF2E4B1B68002B03D02D4BBE
:1046700001221A604FE02B4B00221A602A4B1B6864
:10468000FB60FB68B3FA83F3FB72FB7AC3F11F0391
:104690007B6126497A6913469B0013449B000B44B7
:1046A0001B68002B0BD14FF0500383F31188BFF32D
:1046B0006F8FBFF34F8F7B6000BF00BFFDE77A694C
:1046C00013469B0013449B00184A13443B613B690B
:1046D0005B685A683B695A603B695A683B690833B2
:1046E0009A4203D13B69DA683B695A603B695B686F
:1046F000DB680F4A13600F4B1A680D4B1B689A4218
:1047000002D102F0DBFC04E0094B1B68184602F002
:1047100033FD074B1B6800BF1837BD4680BD00BF87
:10472000E4020020D0020020C4020020E8010020A2
:10473000E4010020E002002080B584B000AF786082
:1047400039607B68002B0BD14FF0500383F3118845
:10475000BFF36F8FBFF34F8FFB6000BF00BFFDE75C
:10476000084B1B68183319467868FEF71EFF0121B5
:10477000386800F097FAE12002F00CFC00BF103717
:10478000BD4680BDE401002080B586B000AFF86072
:10479000B9607A60FB68002B0BD14FF0500383F3B4
:1047A0001188BFF36F8FBFF34F8F3B6100BF00BF16
:1047B000FDE7FB685B687B61174B1B687A69DA6110
:1047C000154B1B687A6992681A62134B1A687B69E9
:1047D0009B6818325A60104B1B6803F118027B6902
:1047E0009A600D4B1B68FA689A62FB681B685A1C3A
:1047F000FB681A607B68002B02D04FF0FF33BB6070
:104800007968B86800F04EFAE32002F0C3FB00BFFD
:104810001837BD4680BD00BFE401002080B58AB0D6
:1048200000AF78607B68DB68DB683B623B6A002B2B
:104830000BD14FF0500383F31188BFF36F8FBFF399
:104840004F8FFB6000BF00BFFDE73B6A9B6AFB61C7
:104850003B6ADB693A6A126A9A603B6A1B6A3A6A87
:10486000D2695A60FB695A683B6A18339A4203D18D
:104870003B6A1A6AFB695A603B6A00229A62FB69CA
:104880001B685A1EFB691A604E4B1B68002B64D1D3
:104890003B6A5B697B613B6A9B683A6AD2689A6053
:1048A0003B6ADB683A6A92685A607B695A683B6A7D
:1048B00004339A4203D13B6ADA687B695A603B6AE7
:1048C00000225A617B691B685A1E7B691A603B6A29
:1048D000184602F093FC3B6ADB6A01229A403A4B8D
:1048E0001B681343384A13603B6ADA6A3749134638
:1048F0009B0013449B000B4404331B683B613B6AE1
:104900003A699A603B699A683B6ADA603B699B68DE
:104910003A6A04325A603B6A1A1D3B699A603B6AE4
:10492000DA6A13469B0013449B00284A1A443B6AE8
:104930005A613B6ADA6A254913469B0013449B007F
:104940000B441B683A6AD26A591C204813469B00E4
:1049500013449B00034419601BE01D4B5B68BB6163
:104960003B6ABA69DA61BB699A683B6A1A62BB69D9
:104970009B683A6A18325A603B6A03F11802BB69B5
:104980009A603B6A124A9A62114B1B680133104AC3
:1049900013603B6ADA6A0F4B1B68DB6A9A4205D9DF
:1049A00001237B620C4B01221A6001E000237B6231
:1049B0007B6A1946E42002F029FB7B6A18462837F7
:1049C000BD4680BDE4020020C4020020E8010020B2
:1049D0007C020020E4010020D002002080B582B0DB
:1049E00000AF7860074B1A687B681A60064B1A683C
:1049F0007B685A60E72002F0CDFA00BF0837BD4659
:104A000080BD00BFD4020020C002002080B588B065
:104A100000AF786039607B68002B0BD14FF05003FA
:104A200083F31188BFF36F8FBFF34F8F3B6100BFDC
:104A300000BFFDE73B68002B0BD14FF0500383F321
:104A40001188BFF36F8FBFF34F8FFB6000BF00BFB4
:104A5000FDE700F0CFFD214B1B68BB617B685B6805
:104A6000BA69D31A7B613B681B68B3F1FF3F02D17F
:104A70000023FB6126E07B681A68194B1B689A4289
:104A80000AD07B685B68BA699A4205D30123FB614F
:104A90003B6800221A6015E03B681B687A699A42FD
:104AA0000BD23B681A687B69D21A3B681A60786837
:104AB000FFF794FF0023FB6104E03B6800221A60CB
:104AC0000123FB6100F0C8FDFB691946E82002F0F4
:104AD0009DFAFB6918462037BD4680BDC002002004
:104AE000D402002080B500AF034B01221A60E920F8
:104AF00002F050FA00BF80BDD002002080B582B025
:104B000000AF786000F052F8064B1B68012BF9D912
:104B1000054B4FF080521A60BFF34F8FBFF36F8F7A
:104B2000F0E700BFE801002004ED00E080B582B0AE
:104B300000AF00237B600CE07A6813469B001344AF
:104B40009B00124A13441846FEF7FEFC7B680133B3
:104B50007B607B68042BEFD90D48FEF7F5FC0D4810
:104B6000FEF7F2FC0C48FEF7EFFC0C48FEF7ECFCFD
:104B70000B48FEF7E9FC0B4B054A1A600A4B054A45
:104B80001A6000BF0837BD4680BD00BFE8010020A5
:104B90004C020020600200207C02002090020020D5
:104BA000A8020020740200207802002080B582B0A4
:104BB00000AF19E000F01EFD104BDB68DB687B6086
:104BC0007B6804331846FEF72BFD0D4B1B68013B39
:104BD0000B4A13600B4B1B68013B0A4A136000F041
:104BE0003BFD786800F010F8064B1B68002BE1D104
:104BF00000BF00BF0837BD4680BD00BF9002002047
:104C0000BC020020A402002080B582B000AF786012
:104C10007B681B6B184600F00BFF786800F008FFFC
:104C200000BF0837BD4680BD80B400AF0A4B1B688B
:104C30001B68002B04D1094B4FF0FF321A6005E0CE
:104C4000054B1B68DB681B68044A136000BFBD4648
:104C50005DF8047B704700BF74020020DC02002076
:104C600080B582B000AF0D4B1B68002B02D1012331
:104C70007B6008E00A4B1B68002B02D102237B609B
:104C800001E000237B607B681946F52002F0BEF945
:104C90007B6818460837BD4680BD00BFC8020020AB
:104CA000E402002080B588B000AF786039603D4BE9
:104CB0001B68FB613C4B1B68BB613C4B1B687B6109
:104CC0003B4B1B6804331846FEF7AAFC0346002B37
:104CD0000BD1374B1B68DB6A012202FA03F3DA437C
:104CE000344B1B681340334A13607B68B3F1FF3FBA
:104CF00024D13B68002B21D02F4B5B683B612C4BB0
:104D00001B683A699A602A4B1B683A699268DA60B4
:104D1000274B1A683B699B6804325A60244B1B6816
:104D20001A1D3B699A60224B1B68234A5A61224B29
:104D30001B680133204A136000BF2EE0FA697B68CC
:104D40001344FB601A4B1B68FA685A60FA68FB69E7
:104D50009A420DD2164B1B680421184602F090FAB5
:104D6000134B1B68043319467869FEF71EFC14E0E8
:104D70000F4B1B680421184602F082FA0C4B1B688B
:104D800004331946B869FEF710FC0C4B1B68FA682F
:104D90009A4202D2094AFB68136000BF2037BD4621
:104DA00080BD00BFC00200207402002078020020F5
:104DB000E4010020C4020020A8020020DC02002040
:104DC00080B584B002AF00237B6000F05BFA154B26
:104DD0001B68002B0BD0144B01930223009300237C
:104DE0004FF4827211491248FEF79BFF78607B688E
:104DF000002B0BD14FF0500383F31188BFF36F8F5B
:104E0000BFF34F8F3B6000BF00BFFDE77B681946D3
:104E10004FF4847002F0FAF87B6818460837BD46F4
:104E200080BD00BF180300201C0300200C80000878
:104E3000D94E000880B584B000AFF860B9607A60E0
:104E400008E0FB689B69BA681344BB60FB681B6A97
:104E5000F8689847FB689A69BB68D118BB687A689C
:104E6000F86800F0DFF80346002BEAD100BF00BF6E
:104E70001037BD4680BD000080B584B000AF7860BB
:104E80003960144B1B68DB68DB68FB60FB6804332C
:104E90001846FEF7C5FBFB6893F8283003F00403BF
:104EA000002B05D03A687968F868FFF7C3FF08E07F
:104EB000FB6893F8283023F00103DAB2FB6883F82B
:104EC0002820FB681B6AF868984700BF1037BD466A
:104ED00080BD00BF1003002080B584B000AF7860B3
:104EE00007F10803184600F059F8F860BB68194646
:104EF000F86800F005F800F0D7F800BFF0E7000010
:104F000080B584B000AF78603960FFF755F907F1DC
:104F10000803184600F066F8F860BB68002B30D133
:104F20003B68002B0AD17A68FB689A4206D8FFF7E3
:104F300051F9F9687868FFF79FFF24E03B68002B80
:104F400008D0134B1B681B68002B01D1012300E024
:104F500000233B600F4B18687A68FB68D31A3A68E5
:104F60001946FEF76BFEFFF735F90346002B0AD111
:104F7000094B4FF080521A60BFF34F8FBFF36F8F12
:104F800001E0FFF727F900BF1037BD4680BD00BF25
:104F9000140300201803002004ED00E080B485B065
:104FA00000AF78600E4B1B681B68002B01D10122FB
:104FB00000E000227B681A607B681B68002B05D12B
:104FC000074B1B68DB681B68FB6001E00023FB608C
:104FD000FB6818461437BD465DF8047B704700BF78
:104FE0001003002080B584B000AF7860FFF704FAAA
:104FF000F8600B4B1B68FA689A4205D200F01CF966
:105000007B6801221A6002E07B6800221A60044A71
:10501000FB681360FB6818461037BD4680BD00BFB3
:105020002003002080B586B000AFF860B9607A60D8
:105030003B6000237B61FB68BA685A60FB68FA68D2
:105040001A61BA687B689A4212D87A683B68D21AA9
:10505000FB689B699A4202D301237B611BE0104BE2
:105060001A68FB68043319461046FEF79EFA12E0F0
:105070007A683B689A4206D2BA683B689A4202D381
:1050800001237B6107E0074B1A68FB68043319466C
:105090001046FEF78AFA7B6918461837BD4680BD70
:1050A000140300201003002080B588B000AF07F182
:1050B000080300221A605A609A60A9E0BB68002BBE
:1050C000C0F2A6803B69FB61FB695B69002B04D0E1
:1050D000FB6904331846FEF7A3FA3B1D1846FFF799
:1050E00081FFB861BB68013B082B00F28E8001A2F2
:1050F00052F823F019510008195100088151000895
:1051000095510008E1510008195100081951000893
:105110008151000895510008FB6993F8283043F04D
:105120000103DAB2FB6983F82820FA68FB699B69FE
:10513000D118FB68BA69F869FFF774FF0346002BC2
:1051400065D0FB6993F8283003F00403002B09D0E5
:10515000FA68FB699B691344BA691946F869FFF755
:1051600069FE08E0FB6993F8283023F00103DAB206
:10517000FB6983F82820FB691B6AF869984746E0B9
:10518000FB6993F8283023F00103DAB2FB6983F856
:1051900028203DE0FB6993F8283043F00103DAB2A0
:1051A000FB6983F82820FA68FB699A61FB699B69AF
:1051B000002B0BD14FF0500383F31188BFF36F8F97
:1051C000BFF34F8F7B6100BF00BFFDE7FB699A69AA
:1051D000BB69D118BB69BA69F869FFF723FF17E00B
:1051E000FB6993F8283003F00203002B03D1F86920
:1051F00000F01EFC0CE0FB6993F8283023F001035B
:10520000DAB2FB6983F8282002E000BF00E000BFAB
:10521000084B1B6807F1080100221846FEF742FB05
:105220000346002B7FF44AAF00BF00BF2037BD46C6
:1052300080BD00BF1803002080B582B000AF09E038
:105240000E4B1B68DB681B683B604FF0FF31386812
:10525000FFF712FE094B1B681B68002BF0D1074BB0
:105260001B687B60064B1B68044A1360044A7B681A
:10527000136000BF0837BD4680BD00BF100300208B
:105280001403002080B500AF00F0B4F9124B1B6886
:10529000002B1DD11148FEF757F91148FEF754F9BC
:1052A000104B0E4A1A60104B0D4A1A6000220C2156
:1052B0000A20FEF77BFA0346074A1360064B1B6879
:1052C000002B05D0044B1B6808491846FEF766FC06
:1052D00000F0C2F900BF80BD18030020E8020020E2
:1052E000FC0200201003002014030020148000089A
:1052F00080B485B000AFF860B9607A60FB68043BA9
:10530000FB60FB684FF080721A60FB68043BFB6037
:10531000BB6823F00102FB681A60FB68043BFB607A
:105320000C4AFB681A60FB68143BFB607A68FB68F8
:105330001A60FB68043BFB60FB686FF002021A60B6
:10534000FB68203BFB60FB6818461437BD465DF8E0
:10535000047B70475953000880B485B000AF002328
:105360007B60134B1B68B3F1FF3F0BD04FF0500332
:1053700083F31188BFF36F8FBFF34F8FFB6000BFC4
:1053800000BFFDE74FF0500383F31188BFF36F8F29
:10539000BFF34F8FBB6000BF00BF7B68002BFCD00A
:1053A00000BF00BF1437BD465DF8047B704700BFE7
:1053B00010000020000000000000000000000000BD
:1053C000074B19680868B0E8F04F80F30988BFF30D
:1053D0006F8F4FF0000080F311887047AFF30080AB
:1053E000E401002000BF00BF08480068006880F3A7
:1053F00008884FF0000080F3148862B661B6BFF3EE
:105400004F8FBFF36F8F00DF00BF000008ED00E09B
:1054100000BF00BF80B58CB000AF694B1B68694A04
:1054200093420BD14FF0500383F31188BFF36F8F7A
:10543000BFF34F8F7B6200BF00BFFDE7604B1B686F
:10544000614A93420BD14FF0500383F31188BFF3AD
:105450006F8FBFF34F8F3B6200BF00BFFDE75B4B19
:105460001B68FB62FB6A2C331B68594A93420BD0C2
:105470004FF0500383F31188BFF36F8FBFF34F8F4B
:10548000FB6100BF00BFFDE7FB6A38331B68514A70
:1054900093420BD04FF0500383F31188BFF36F8F0B
:1054A000BFF34F8FBB6100BF00BFFDE70023BB60B0
:1054B000494BBB62BB6A1B78DBB2FB73BB6AFF2242
:1054C0001A70BB6A1B78DBB2FB71FB79DBB203F0AD
:1054D0005003DAB2414B1A70404B1B78002B0BD1B2
:1054E0004FF0500383F31188BFF36F8FBFF34F8FDB
:1054F0007B6100BF00BFFDE7FB79DBB2DB4303F05C
:105500005003002B13D04FF0500383F31188BFF3E7
:105510006F8FBFF34F8F3B6100BF00BFFDE7BB68DC
:105520000133BB60FB79DBB25B00DBB2FB71FB7963
:10553000DBB203F08003802BF1D0BB68082B03D1D2
:10554000274B00221A6004E0BB68C3F10703244A1A
:105550001360234B1B681B02214A1360204B1B68FE
:1055600003F4E0631E4A1360FB7BDAB2BB6A1A7075
:105570001C4B1B681B4A43F47F031360194B1B68C9
:10558000184A43F07F431360174B00221A6000F063
:10559000EDF8164B00221A6000F00CF9144B1B6852
:1055A000134A43F040431360FFF71EFFFFF758F81C
:1055B000FFF7D2FE002318463037BD4680BD00BF3E
:1055C00000ED00E071C20F4170C20F4108ED00E034
:1055D000C1530008B156000800E400E02403002095
:1055E0002803002020ED00E01CED00E0100000206A
:1055F00034EF00E080B483B000AF4FF0500383F38A
:105600001188BFF36F8FBFF34F8F7B6000BF104BCC
:105610001B6801330E4A13600D4B1B68012B10D120
:105620000C4B1B68DBB2002B0BD04FF0500383F305
:105630001188BFF36F8FBFF34F8F3B6000BF00BF78
:10564000FDE700BF0C37BD465DF8047B704700BF27
:105650001000002004ED00E080B483B000AF124BD6
:105660001B68002B0BD14FF0500383F31188BFF35D
:105670006F8FBFF34F8F7B6000BF00BFFDE70A4B0A
:105680001B68013B084A1360074B1B68002B05D1C0
:1056900000233B603B6883F3118800BF00BF0C37D9
:1056A000BD465DF8047B704710000020000000003C
:1056B000EFF30980BFF36F8F154B1A681EF0100FC0
:1056C00008BF20ED108A20E9F04F10602DE9090095
:1056D0004FF0500080F31188BFF34F8FBFF36F8FEF
:1056E000FEF7BEFF4FF0000080F3118809BC196877
:1056F0000868B0E8F04F1EF0100F08BFB0EC108A39
:1057000080F30988BFF36F8F704700BFAFF300804D
:10571000E401002000BF00BF80B582B000AF4FF0B1
:10572000500383F31188BFF36F8FBFF34F8F7B60FC
:1057300000BF01F0B5FBFEF771FE0346002B06D05B
:1057400001F00CFC084B4FF080521A6001E001F0B0
:10575000E9FB00233B603B6883F3118800BF00BF77
:105760000837BD4680BD00BF04ED00E080B400AF47
:105770000B4B00221A600B4B00221A600A4B1B686D
:105780000A4AA2FB03239B09094A013B1360044B0D
:1057900007221A6000BFBD465DF8047B704700BF5A
:1057A00010E000E018E000E000000020D34D62109F
:1057B00014E000E0DFF80C00016841F470010160C2
:1057C0007047000088ED00E000BF00BF80B58EB0DC
:1057D00000AF78600023FB627B68002B22D0082397
:1057E000DB437A689A421BD808227B6813447B60AB
:1057F0007B6803F00703002B14D07B6803F00703DA
:10580000C3F10803BB62BB6ADB437A689A4204D8DF
:105810007A68BB6A13447B6004E000237B6001E08C
:1058200000237B60FEF7C8FC7A4B1B68002B01D17C
:1058300000F078F97B68002BC0F2D3807B68002BE6
:1058400000F0CF80744B1B687A689A4200F2C980DE
:10585000724B3B63714B1B687B637B6B704A93425B
:1058600005D37B6B6F4A934201D8012300E00023EC
:10587000002B29D14FF0500383F31188BFF36F8FB2
:10588000BFF34F8F3B6200BF00BFFDE77B6B3B6305
:105890007B6B1B687B637B6B614A934205D37B6B9D
:1058A000604A934201D8012300E00023002B0BD172
:1058B0004FF0500383F31188BFF36F8FBFF34F8F07
:1058C000FB6100BF00BFFDE77B6B5B687A689A42B3
:1058D00003D97B6B1B68002BD8D14E4B1B687A6BAE
:1058E0009A427ED03B6B1B6808221344FB62FB6A22
:1058F0004B4A934205D3FB6A4A4A934201D801239B
:1059000000E00023002B0BD14FF0500383F31188EC
:10591000BFF36F8FBFF34F8FBB6100BF00BFFDE7C9
:105920007B6B1A683B6B1A607B6B5B687A689A4288
:105930000BD94FF0500383F31188BFF36F8FBFF380
:105940004F8F7B6100BF00BFFDE77B6B5A687B68B0
:10595000D21A08235B009A4224D97A6B7B681344DD
:105960007B627B6A03F00703002B0BD04FF05003E0
:1059700083F31188BFF36F8FBFF34F8F3B6100BF7D
:1059800000BFFDE77B6B5A687B68D21A7B6A5A605E
:105990007B6B7A685A603B6B1A687B6A1A603B6B58
:1059A0007A6A1A601C4B1A687B6B5B68D31A1A4AB6
:1059B0001360194B1A681C4B1B689A4203D2164B92
:1059C0001B68194A13607B6B5B6843F000427B6B7A
:1059D0005A607B6B00221A60144B1B680133134A18
:1059E0001360FEF7F7FBFB6A03F00703002B0BD0F5
:1059F0004FF0500383F31188BFF36F8FBFF34F8FC6
:105A0000FB6000BF00BFFDE7FB6A18463837BD46A4
:105A100080BD00BF342F0120382F01202C2F012002
:105A20002C0300202B2F01203C2F0120402F012090
:105A300080B588B000AF78607B68FB617B68002B25
:105A400064D008235B42FA691344FB61FB69BB61C4
:105A5000BB69304A934205D3BB692F4A934201D8B0
:105A6000012300E00023002B0BD14FF0500383F300
:105A70001188BFF36F8FBFF34F8F7B6100BF00BFF3
:105A8000FDE7BB695B68002B0BDB4FF0500383F332
:105A90001188BFF36F8FBFF34F8F3B6100BF00BF13
:105AA000FDE7BB691B68002B0BD04FF0500383F35D
:105AB0001188BFF36F8FBFF34F8FFB6000BF00BF34
:105AC000FDE7BB695B68DB0F03F00103DBB2002B72
:105AD0001CD0BB691B68002B18D1BB695B6823F025
